:100000000C9422010C9451010C9451010C94510157
:100010000C9498160C9451010C9451010C945101BC
:100020000C9451010C94F7190C94F8190C94F919CB
:100030000C9451010C94B0200C9448210C94AF20E6
:100040000C947F160C9451010C9451010C945101A5
:100050000C94341E0C9418220C9451010C945101F0
:100060000C944E160C9451010C9444230C945101A1
:100070000C9451010C9451010C9451010C945101B8
:100080000C9451010C9451010C945101084AD73B36
:100090003BCE016E84BCBFFDC12F3D6C74319ABD57
:1000A00056833DDA3D00C77F11BED9E4BB4C3E917B
:1000B0006BAAAABE000000803F07634236B79BD8F8
:1000C000A71A39685618AEBAAB558C1D3CB7CC5739
:1000D00063BD6DEDFD753EF6177231BF0000008007
:1000E0003F08000000BE922449123EABAAAA2ABED5
:1000F000CDCCCC4C3E00000080BEABAAAAAA3E00EC
:10010000000000BF000000803F0000000000084128
:1001100078D3BB4387D1133D190E3CC3BD4282AD9A
:100120002B3E68EC8276BED98FE1A93E4C80EFFF72
:10013000BE01C4FF7F3F0000000000006E616E0042
:10014000696E660000407A10F35A00A0724E1809DA
:100150000010A5D4E80000E87648170000E40B542E
:10016000020000CA9A3B000000E1F50500008096FD
:100170009800000040420F000000A086010000002F
:10018000102700000000E8030000000064000000E9
:1001900000000A00000000000100000000002C76B2
:1001A000D888DC674F0823DFC1DFAE59E1B1B796CD
:1001B000E5E3E453C63AE651997696E8E6C284262A
:1001C000EB898C9B62ED407C6FFCEFBC9C9F40F206
:1001D000BAA56FA5F490055A2AF75C936B6CF96782
:1001E0006DC11BFCE0E40D47FEF520E6B500D0ED47
:1001F000902E0300943577050080841E08000020AF
:100200004E0A000000C80C333333330F986E12834C
:100210001141EF8D2114893BE65516CFFEE6DB1820
:10022000D1844B381BF77C1D901DA4BBE4242032E5
:1002300084725E228100C9F124ECA1E53D27D92812
:10024000122ACA2B11241FBECFEFD0E4DEBFCDBFD0
:100250001CE0A0E0B1E0ECE7FBE600E00BBF02C071
:1002600007900D92A83FB107D9F721E1A8EFBCE0B4
:1002700001C01D92AF34B207E1F712E0C4E4D2E04E
:1002800000E006C022970109FE010BBF0E94242C4A
:10029000CE33D10780E00807A9F70E94A2280C946A
:1002A000BC350C9400008091BC0D08958093BC0D6A
:1002B00008958091FB0C08958093F90C0895809324
:1002C000F80C08952091FA0C222369F0FC010190AA
:1002D0000020E9F7AF0141505109481B590BBC01FF
:1002E00085E00C94831D08950F931F93CF93DF93A4
:1002F00000D000D000D0CDB7DEB70CEF1CE02EE16F
:1003000030E040E050E060E070E0CE0101960E94F5
:10031000331A29813A814B815C816D817E81C801CC
:100320000E944406005C1F4F8DE00C3B180739F714
:100330000E946F1F88EC90E00E94CE1B0CEF1CE027
:1003400020E030E040E050E060E070E0CE01019657
:100350000E94331A29813A814B815C816D817E81B3
:10036000C8010E944406005C1F4F8DE00C3B18073B
:1003700039F70E946F1F88EC90E00E94CE1B00E0CE
:1003800010E02EE130E040E050E060E070E0CE01AF
:1003900001960E94331A29813A814B815C816D81DB
:1003A0007E81C801845E924F0E944406005C1F4F0C
:1003B000003C110531F70E946F1F88EC90E00E940D
:1003C000CE1B00E010E020E030E040E050E060E0D4
:1003D00070E0CE0101960E94331A29813A814B8147
:1003E0005C816D817E81C801845E924F0E944406CB
:1003F000005C1F4F003C110531F70E946F1F88EC15
:1004000090E00E94CE1B26960FB6F894DEBF0FBE7A
:10041000CDBFDF91CF911F910F910895811113C02E
:10042000FB018081853511F481E003C0803521F422
:1004300082E08093FB0C0895833411F483E0F9CFBC
:100440001092FB0C0895833021F491E09093FA0C04
:1004500004C0843029F41092FA0C8093F90C0895AA
:100460009091FB0C913031F4982F907F903111F4E2
:100470000C9451149091FB0C923031F4982F907F92
:10048000903211F40C94720E9091FB0C933031F475
:10049000982F907F903311F40C946B0908954F922C
:1004A0005F926F927F928F929F92AF92BF92CF9204
:1004B000DF92EF92FF920F931F93CF93DF93CDB70D
:1004C000DEB768970FB6F894DEBF0FBECDBF6D8361
:1004D0007E838F83988729833A834B835C83ED8661
:1004E000FE860F87188B4BA45CA46DA47EA4A30189
:1004F0009201C301B2010E94BB2E698B7A8B8B8B58
:100500009C8B29813A814B815C81CA01B9010E948F
:10051000BB2E6D8B7E8B8F8B988F9B01AC01698975
:100520007A898B899C890E94382C69877A878B8786
:100530009C87A3019201C301B2010E94382C29813A
:100540003A814B815C810E94BB2E2B013C012FA57F
:1005500038A949A95AA96D817E818F8198850E9409
:10056000382C0E94E51C9B01AC01C301B2010E9422
:10057000BB2E9B01AC0169857A858B859C850E9489
:10058000372C0E946E2F2B013C019B01AC010E9475
:10059000BB2E6D837E838F839887A3019201C30155
:1005A000B2010E94382C69877A878B879C872D85BA
:1005B0003E854F855889CA01B9010E94BB2E9B0117
:1005C000AC016D817E818F8198850E94382C2B0132
:1005D0003C01A6019501C601B5010E94BB2E9B01FD
:1005E000AC01C301B2010E94372C2B013C012D85C7
:1005F0003E854F85588969857A858B859C850E94C3
:10060000BB2E9B01AC01C301B2010E94022D0E94CE
:10061000A91C2B013C012D893E894F89588D6D8184
:100620007E818F8198850E94382C29893A894B894F
:100630005C890E94372C4B015C0129813A814B81F6
:100640005C8169857A858B859C850E94BB2E9B0188
:10065000AC01C501B4010E94022D0E94A91C9B019E
:10066000AC01C301B2010E94382C2BA93CA94DA9B1
:100670005EA90E94382C2FA938AD49AD5AAD0E9411
:10068000372C68960FB6F894DEBF0FBECDBFDF9152
:10069000CF911F910F91FF90EF90DF90CF90BF907F
:1006A000AF909F908F907F906F905F904F90089544
:1006B0004F925F926F927F928F929F92AF92CF9262
:1006C000DF92EF920F931F93CF93DF9300D0CDB7BC
:1006D000DEB74C012A010A962A8369830E94321AE6
:1006E000340180E1680E711CC3010E94321A6981D5
:1006F000F40160835282418214830383D682C582CF
:100700002A812783E086A1864B895C896D897E8951
:10071000468B578B608F718F86E0FE017796D301F1
:1007200001900D928A95E1F70F900F90DF91CF9194
:100730001F910F91EF90DF90CF90AF909F908F908F
:100740007F906F905F904F900895FC018081089595
:10075000FC0166897789808D918D0895CF93DF9311
:1007600000D000D000D0CDB7DEB726E0FC013A962D
:10077000DE01119601900D922A95E1F729813A81C7
:100780004B815C816D817E8180E090E026960FB682
:10079000F894DEBF0FBECDBFDF91CF910895860FD5
:1007A000911D860F911DFC01818192810895860F14
:1007B000911DFC0187810895663028F4FC01E60F45
:1007C000F11D828D089580E00895663020F4FC01CB
:1007D000E60FF11D428F08958F929F92AF92BF92C4
:1007E000CF92DF92EF92FF920F931F93CF93DF93FD
:1007F000EC01CB01BA0120E42F9326E12F932BECDF
:100800002F9324EE2F935EE35F9342EB4F9338EBED
:100810003F9323EC2F935F934F933F932F9322E4C7
:100820002F9328E02F931F921F92A12CB12C28E523
:10083000C22E22E4D22E16E6E12EFE2C02E811E4AE
:1008400020E030E040EF51E40E944F024B015C0198
:100850006A8D8DB79EB740960FB6F8949EBF0FBEB7
:100860008DBF9AE06902B001112464527A4F80E092
:1008700090E00E949B2D6B017C012AEE39EC48E14F
:1008800054E4C501B4010E94BB2E9B01AC01C70119
:10089000B6010E94382C0E946F2DAB01BC018881EB
:1008A000982F990F890FDF91CF911F910F91FF9092
:1008B000EF90DF90CF90BF90AF909F908F900C946F
:1008C000481F8F929F92AF92BF92CF92DF92EF928A
:1008D000FF920F931F93CF93DF93EC01CB01BA01EB
:1008E00020E42F9323E12F9322E72F9327E02F93E8
:1008F0005FE35F934CE04F933EEB3F932DE42F93E8
:100900005F934F933F932F9322E42F9328E02F93ED
:100910001F921F92A12CB12C4AE1C42E42E4D42E86
:10092000E12CF12C04E811E42AE939E94DED51E418
:100930000E944F024B015C016B8D8DB79EB74096B4
:100940000FB6F8949EBF0FBE8DBF9AE06902B0014A
:10095000112464527A4F80E090E00E949B2D6B013D
:100960007C012AEE39EC48E154E4C501B4010E944F
:10097000BB2E9B01AC01C701B6010E94382C0E941E
:100980006F2DAB01BC019881892F880F890F8F5F74
:10099000DF91CF911F910F91FF90EF90DF90CF905B
:1009A000BF90AF909F908F900C94481F8F929F9212
:1009B000AF92BF92CF92DF92EF92FF92CF93DF93ED
:1009C000EC014A015B016C8D8AE06802B0011124E0
:1009D00064527A4F80E090E00E949B2D6B017C0175
:1009E00029E739E446E854ECC501B4010E94BB2E66
:1009F0009B01AC01C701B6010E94382C0E946F2DEB
:100A0000AB01BC019881892F880F890F8E5FDF9120
:100A1000CF91FF90EF90DF90CF90BF90AF909F90DD
:100A20008F900C94481F4F925F926F927F928F929B
:100A30009F92AF92BF92CF92DF92EF92FF920F936D
:100A40001F93CF93DF93CDB7DEB766970FB6F894B9
:100A5000DEBF0FBECDBF8C0129833A834B835C83FD
:100A60006D837E8386E0FE013196D8011A9601904F
:100A70000D928A95E1F7F80146895789608D718D4D
:100A80007058CE0101960E94271BE980FA80FDE292
:100A9000EF1AF108FA82E982CB80DC80B70188275F
:100AA00077FD8095982F0E949D2D9B01AC01B6018A
:100AB000882777FD8095982F2B8B3C8B4D8B5E8BF9
:100AC0000E949D2D2B893C894D895E890E94AB2C0B
:100AD0006F87788B898B9A8BEE9CB001EF9C700DA1
:100AE000700D1124CC9CC001CD9C900D900D112453
:100AF000680F791F882777FD8095982F0E949D2D7C
:100B00000E946E2F6B017C016D817E81882777FDAD
:100B10008095982F0E949D2D9B01AC0166E676EA98
:100B200081E992E40E94372C4B015C019B01AC01EE
:100B30000E94BB2E2B013C0120E030E044E452E453
:100B4000C701B6010E94372C9B01AC010E94BB2E4D
:100B50006B877C878D879E879B01AC01C301B201A7
:100B60000E94382C0E946E2F6B017C019B01AC010E
:100B70000E94BB2E6F83788789879A879B01AC017F
:100B8000C301B2010E94382C2B853C854D855E85C2
:100B90000E94372C2B013C01A5019401C501B40131
:100BA0000E94382CA70196010E94BB2E9B01AC012C
:100BB000C301B2010E94022D0E94A91C4B015C01DD
:100BC00020E030E048EC54E46F81788589859A858F
:100BD0000E94382C20E030E14BE455E40E94372C91
:100BE0002B013C0120E030E040EA52E4C701B601AD
:100BF0000E94BB2E9B01AC01C301B2010E94022DD9
:100C00000E94A91C9B01AC01C501B4010E94382CB3
:100C10006B017C012F81388549855A8560E078E831
:100C200087E995E40E94372C20E030E84EE855E44F
:100C30000E94022D0E94A91CAB01BC01C8010E94A8
:100C4000EC03B701A601C8010E9461044F855889D1
:100C500069897A89C8010E94D60466960FB6F8940D
:100C6000DEBF0FBECDBFDF91CF911F910F91FF90DF
:100C7000EF90DF90CF90BF90AF909F908F907F903C
:100C80006F905F904F9008950F931F93CF93DF93D2
:100C9000CDB7DEB72C970FB6F894DEBF0FBECDBF31
:100CA0008C012F83388749875A876B877C8720E0A0
:100CB00030E040E050E060E070E0CE0101960E943C
:100CC000331AF801858D992787FD9095282F9A83EF
:100CD0008983868D992787FD9095482F9C838B83E8
:100CE000878D992787FD9095682F9E838D833A8104
:100CF0005C817E81CE0107960E943B1A8F81988588
:100D00008F3191051CF08EE190E005C0823E9F4F2F
:100D100024F482EE9FEF98878F8389859A858F319F
:100D200091051CF08EE190E005C0823E9F4F24F4B7
:100D300082EE9FEF9A8789878B859C85803191050C
:100D40001CF08FE090E005C0813F9F4F24F481EFBD
:100D50009FEF9C878B87F8012089318942895389CD
:100D600064897589CE0107960E943B1A2F813885C8
:100D700049855A856B857C85C8010E9413052C9690
:100D80000FB6F894DEBF0FBECDBFDF91CF911F919C
:100D90000F9108950F931F93CF93DF9300D000D04E
:100DA00000D0CDB7DEB78C0120E030E040E050E06D
:100DB00060E070E0CE0101960E94331A29813A81E9
:100DC0004B815C816D817E81C8010E94440626961C
:100DD0000FB6F894DEBF0FBECDBFDF91CF911F914C
:100DE0000F910895BF92CF92DF92EF92FF920F93EF
:100DF0001F93CF93DF9300D000D0CDB7DEB78CEF39
:100E0000C82E8CE0D82E00E010E07801B12C6B2DBC
:100E1000C6010E94DC03682FC7010E949435B39479
:100E20008FEFE81AF80A86E0B812F1CF0A5F1F4F79
:100E300080E2C80ED11C0432110539F7BE016F5F84
:100E40007F4FCE0103960E94B6176B817C8184E2AE
:100E500090E00E94A63569817A8186E290E00E9446
:100E6000A6350F900F900F900F90DF91CF911F91AB
:100E70000F91FF90EF90DF90CF90BF900895EF9289
:100E8000FF920F931F93CF93DF939CEFE92E9CE08B
:100E9000F92E00E010E0C0E0D0E0CE01800F911FFD
:100EA0000E948635482F6C2FC7010E94E5032196CA
:100EB000C630D10591F70A5F1F4F80E2E80EF11CA2
:100EC0000432110541F784E290E00E948E35EC0176
:100ED00086E290E00E948E35BC01CE01DF91CF9179
:100EE0001F910F91FF90EF900C94C5171F93CF9314
:100EF000DF938091C10D813089F4CCEFDCE010E00C
:100F000040E0612FCE010E94E5031F5F1330C1F75F
:100F1000A0968DE0CC3BD80791F728C08091C10DF9
:100F20008230B9F4CCEFDCE040E063E0CE010E9417
:100F3000E50340E064E0CE010E94E50340E065E0A7
:100F4000CE010E94E503A0968DE0CC3BD80761F767
:100F50000DC08091C10D833049F460E070E080E005
:100F600090E0DF91CF911F910C94C517DF91CF9145
:100F70001F9108959F92AF92BF92CF92DF92EF920E
:100F8000FF920F931F93CF93DF93CDB7DEB7669792
:100F90000FB6F894DEBF0FBECDBF0E94D8150E94D9
:100FA000351F7FE3D72EE0E2CE2E8091FB0C8330FD
:100FB00009F0ECC0A8958091C40D813011F50CEFBB
:100FC0001CE0E12CF12C6F2DC8010E94DC032AE00B
:100FD0008202C0011124AC0144525A4F662757FDCA
:100FE0006095762F8F2D8E0D0E94481FF39483E01D
:100FF000F812E9CF005E1F4FE80E92E1E912E2CF4E
:1010000027C08091C40D833021F48091BD0D8111E2
:10101000E9C08091C40D8823F9F00CEF1CE020E0BA
:1010200030E040E050E060E070E0CE0101960E94C8
:10103000331A29813A814B815C816D817E81C8019F
:101040000E944406005E1F4F8DE00C3B180739F7E5
:101050000E946F1F1092C40D8091C30D882329F048
:101060000E94F2061092C30D11C08091C20D882318
:1010700029F00E943F071092C20D08C08091C10D57
:10108000882321F00E9476071092C10D8091C00D37
:10109000882359F14CEFE42E4CE0F42ECE0101965A
:1010A0005C0100E010E0602FC7010E94DC03F50145
:1010B000E00FF11F80830F5F1F4F0330110599F779
:1010C00090E2E90EF11C23E0A20EB11C8CEBE816B5
:1010D0008DE0F80631F742E1BE016F5F7F4F84E398
:1010E0000E94831D1092C00D4CC08091BF0D8823BB
:1010F00061F13CEFE32E3CE0F32ECE0101965C0162
:1011000000E010E063E0600FC7010E94DC03F5011E
:10111000E00FF11F80830F5F1F4F0330110591F720
:1011200090E2E90EF11C23E0A20EB11C8CEBE81654
:101130008DE0F80629F742E1BE016F5F7F4F86E33D
:101140000E94831D1092BF0D1CC08091BE0D88238C
:10115000C1F0BE016D5E7F4FCE0145960E94B6176D
:101160008D899E8999838A838B899C899B838C83B3
:1011700044E0BE016F5F7F4F88E30E94831D1092A1
:10118000BE0D84E190E00E94CE1B0FCF0E943F076E
:101190000CEF1CE0C8010E94CA06005E1F4F9DE0D4
:1011A0000C3B1907B9F70E946F1F40E060E080E038
:1011B0000E94911988EC90E00E94CE1B0E94441F6F
:1011C00066960FB6F894DEBF0FBECDBFDF91CF910C
:1011D0001F910F91FF90EF90DF90CF90BF90AF9055
:1011E0009F9008951092BD0D88EC90E00E94CE1B58
:1011F00020EDE22E27E0F22E912CA8956CEFA62E82
:101200006CE0B62E00E010E0DF921F921F921F925A
:101210001F921F921F921F921F921F921F921F9246
:101220009F92F80155E0EE0FFF1F5A95E1F7E45049
:10123000F34F8DB79EB780970FB6F8949EBF0FBE41
:101240008DBFADB7BEB711968C2D01900D928A95CA
:10125000E1F70E94C31429833A834B835C836D8337
:101260007E830FB6F894DEBF0FBECDBFC5010E94CE
:1012700044060F5F1F4F90E2A90EB11C0630110506
:1012800019F60E946F1F93940E94CB15891508F4DC
:10129000912C84E190E00E94CE1BBE016D5E7F4FD9
:1012A000CE0145960E94CE178D899E8999838A83A7
:1012B0008B899C899B838C8344E0BE016F5F7F4F49
:1012C00088E30E94831D21E0E21AF108E114F10491
:1012D00009F093CFC1CEAF92BF92DF92EF92FF920F
:1012E0000F931F93CF93DF931F92CDB7DEB7FB0110
:1012F000803321F481E08093C30D80C0813321F4D9
:1013000081E08093C20D7AC0823321F48081809382
:10131000C10D74C0833321F481E08093C00D6CC093
:10132000843309F5423109F069C08B019CEFA92E85
:101330009CE0B92E7801D12CF70141917F016D2DF0
:10134000C5010E94E503D394F3E0DF12F5CF0D5FF2
:101350001F4F80E2A80EB11CECEBAE16EDE0BE060E
:1013600049F781E049C0853321F481E08093BF0DC6
:1013700022C0863311F5423109F040C08B018CEF59
:10138000A82E8CE0B82E780123E0F70141917F016F
:10139000622FC50129830E94E50329812F5F263032
:1013A000A1F70D5F1F4FF0E2AF0EB11C8CEBA8163A
:1013B0008DE0B80641F782E01FC0873321F481E059
:1013C0008093BE0D18C0883389F44430B9F462812B
:1013D00070E0762F66278381682B808190E0982FBC
:1013E00088272181822B0E94C51705C0893331F4DB
:1013F00081E08093BD0D83E08093C40D0F90DF9159
:10140000CF911F910F91FF90EF90DF90BF90AF9021
:1014100008952F923F924F925F926F927F928F9298
:101420009F92AF92BF92CF92DF92EF92FF920F9373
:101430001F93CF93DF93CDB7DEB7CA58D1090FB64C
:10144000F894DEBF0FBECDBFA8958091EF0D882325
:1014500021F08091FA0C8111CDC072E3A72E7CE0BF
:10146000B72E8E010F5F1F4FE6E48E2EECE09E2E0E
:101470008091EF0D882309F491C00E94A8186B0198
:101480007C018091FA0C882391F0FF92EF92DF9219
:10149000CF92BF92AF921F930F930E94F934C8016D
:1014A0000E9462010FB6F894DEBF0FBECDBF20913F
:1014B000C80D3091C90D4091CA0D5091CB0DC70197
:1014C000B6010E94372C9F772DEC3CEC4CE45DE399
:1014D0000E94FE2C87FF06C08091C70D8F5F80930E
:1014E000C70D0AC0C092C80DD092C90DE092CA0DB6
:1014F000F092CB0D1092C70D8091C70D853008F486
:1015000048C08091ED0D882341F0C092E70DD09244
:10151000E80DE092E90DF092EA0D8091EC0D882340
:10152000B1F06091D30D7091D40D8091D50D909153
:10153000D60DA70196010E94382C0E947D1B609356
:10154000D70D7093D80D8093D90D9093DA0D8091BB
:10155000FA0C882391F0FF92EF92DF92CF929F9244
:101560008F921F930F930E94F934C8010E94620169
:101570000FB6F894DEBF0FBECDBF1092EF0D1092E4
:10158000C70D1092C80D1092C90D1092CA0D10927D
:10159000CB0D84E690E00E94CE1B6ACF8091EE0DC9
:1015A0008823F9F00E945301882361F00E94351FBF
:1015B00040E06FEF80E00E9491190E9474010E9448
:1015C000D8150DC00E94DC1540E060E080E00E946C
:1015D000911988EC90E00E94CE1B0E94441F10924B
:1015E000EE0D8091ED0D882351F08091EF0D882351
:1015F000A9F005C087EA9CE00E9462012ECF80918D
:10160000EC0D882309F413C38091EF0D81110FC3F2
:101610008091EF0D882309F47AC109C30E94A818AC
:101620009B01AC016091E70D7091E80D8091E90D8F
:101630009091EA0D0E94CA1B20E030E040EA50E49D
:101640000E94BB2E20E030E040E450E40E941E2FB8
:10165000162F072FF82EE92E6801570120E030E001
:1016600040E05FE3D801F7016B2F7A2F8F2F9E2F79
:101670000E94B02E1816A4F020E030E040E05FEBAE
:10168000D801F7016B2F702F8F2F9E2D0E94FE2CFB
:1016900087FF0BC0D12CC12CB12C6FEBA62E05C03F
:1016A000D12CC12CB12C5FE3A52E4090DB0D5090C6
:1016B000DC0D6090DD0D7090DE0D6091DF0D70919E
:1016C000E00D8091E10D9091E20D20E030E040E8E6
:1016D00050E40E94BB2E9B01AC01C301B2010E94E9
:1016E000FE2C87FF08C01092ED0D0E94740182E26B
:1016F0000E945F0182C18091C60D9E012F5F3F4F06
:10170000790180FD14C0AF92BF92CF92DF9281EA3F
:101710009CE09F938F93FF922F930E94F934C7010F
:101720000E9462010FB6F894DEBF0FBECDBF3CEF42
:10173000832E3CE0932E00E010E040E2742E4091B6
:10174000E30D5091E40D6091E50D7091E60D8091EF
:10175000DF0D9091E00DA091E10DB091E20DAF92FF
:10176000BF92CF92DF927F936F935F934F93BF931C
:10177000AF939F938F938091C60D8F93F80125E0CF
:10178000EE0FFF1F2A95E1F7E450F34F2DB73EB758
:10179000205231090FB6F8943EBF0FBE2DBFADB732
:1017A000BEB71196872D01900D928A95E1F70E94A0
:1017B000C314CF57DF4F2883C158D040CE57DF4FD7
:1017C0003883C258D040CD57DF4F4883C358D040EC
:1017D000CC57DF4F5883C458D040CB57DF4F688376
:1017E000C558D040CA57DF4F7883C658D040609163
:1017F000CC0D0FB6F894DEBF0FBECDBF772767FDC7
:101800007095872F972F0E949D2D9B01AC0160E062
:1018100070E080E490E40E94F72D5090CD0D609030
:10182000CE0D0E946A2D452D552747FD5095E62D7A
:10183000FF27E7FDF0959B01BF01C7010E94331A06
:1018400029813A814B815C816D817E81CE018F57E8
:101850009F4F0E943B1ACF57DF4F2881C158D0407D
:10186000CE57DF4F3881C258D040CD57DF4F488127
:10187000C358D040CC57DF4F5881C458D040CB57C5
:10188000DF4F6881C558D040CA57DF4F7881C658AE
:10189000D040C4010E9444060F5F1F4F90E2890EA2
:1018A000911C0630110509F04ACF1091C60D1F5F3B
:1018B0001093C60D0E94CB15811710F41092C60D1F
:1018C0000E946F1F6091DF0D7091E00D8091E10D1E
:1018D0009091E20DC090DB0DD090DC0DE090DD0D1D
:1018E000F090DE0D20E030E040E850E40E94BB2E96
:1018F0009B01AC01C701B6010E94372C6093DB0D40
:101900007093DC0D8093DD0D9093DE0D76C00E9408
:10191000A818C957DF4F6883C758D040C857DF4F52
:101920007883C858D040382E292E6091D70D7091F9
:10193000D80D8091D90D9091DA0DC957DF4FB8813C
:10194000C758D040C857DF4FA881C858D040F101D0
:101950002B2F3A2F4F2F5E2F0E94CA1B6B017C0149
:101960004B015C01E894B7F82DEC3CEC4CE45DE3F2
:10197000C501B4010E94FE2C18160CF45CC0109234
:10198000EC0D8091FA0C882389F18091D70D90910C
:10199000D80DA091D90DB091DA0DFF92EF92DF92A0
:1019A000CF92BF93AF939F938F932F923F92C8573D
:1019B000DF4F2881C858D0402F93C957DF4F388157
:1019C000C758D0403F9389E69CE09F938F938E0148
:1019D0000F5F1F4F1F930F930E94F934C8010E949D
:1019E00062010FB6F894DEBF0FBECDBF0E94740136
:1019F00082E20E945F010E946F1F85E090E00E94DA
:101A0000CE1BC657DF4F0FB6F894DEBF0FBECDBF5B
:101A1000DF91CF911F910F91FF90EF90DF90CF90CA
:101A2000BF90AF909F908F907F906F905F904F90FE
:101A30003F902F9008956091CF0D7091D00D8091BF
:101A4000D10D9091D20DA50194010E94F72D9B011B
:101A5000AC016DEC7CEC8CEC9DE30E94D82D2B014D
:101A60003C0120E030E0A901C701B6010E94FE2C34
:101A700087FF04C077FA709477F870949CEF892EF2
:101A80009CE0992EA12CB12C8E010F5F1F4F7F92ED
:101A90006F925F924F921F921F921F921F921F92FE
:101AA0001F921F921F928091C50D8F93F50185E0C3
:101AB000EE0FFF1F8A95E1F7E450F34F2DB73EB7C5
:101AC000205231090FB6F8943EBF0FBE2DBFADB7FF
:101AD000BEB7119680E201900D928A95E1F70E94BF
:101AE000C314CF57DF4F2883C158D040CE57DF4FA4
:101AF0003883C258D040CD57DF4F4883C358D040B9
:101B0000CC57DF4F5883C458D040CB57DF4F688342
:101B1000C558D040CA57DF4F7883C658D04060912F
:101B2000CC0D0FB6F894DEBF0FBECDBF772767FD93
:101B30007095872F972F0E949D2D9B01AC0160E02F
:101B400070E080E490E40E94F72D4091CD0D30913B
:101B5000CE0DC657DF4F3883CA58D040C757DF4F26
:101B60004883C958D0400E946A2DC757DF4F48812B
:101B7000C958D040552747FD5095C657DF4F38818B
:101B8000CA58D040E32FFF27E7FDF0959B01BF0126
:101B9000C8010E94331A29813A814B815C816D8191
:101BA0007E81CE018F579F4F0E943B1ACF57DF4F48
:101BB0002881C158D040CE57DF4F3881C258D0401D
:101BC000CD57DF4F4881C358D040CC57DF4F5881A5
:101BD000C458D040CB57DF4F6881C558D040CA5752
:101BE000DF4F7881C658D040C4010E9444069FEF61
:101BF000A91AB90A20E2820E911C36E0A316B1049C
:101C000009F045CF8091C50D837021F48091FA0CC5
:101C1000811139C01091C50D1F5F1093C50D0E9431
:101C2000CB15811708F0E7CE1092C50DE4CE809158
:101C3000EB0D882309F4E1CE1092EB0D0CEF1CE0C4
:101C40002091CC0D4091CD0D6091CE0D332727FD15
:101C50003095552747FD5095772767FD7095CE0144
:101C600001960E94331A29813A814B815C816D81F2
:101C70007E81C8010E944406005E1F4F8DE00C3B30
:101C80001807F1F6B8CE8091D70D9091D80DA0919C
:101C9000D90DB091DA0DFF92EF92DF92CF92BF9300
:101CA000AF939F938F932F923F92C857DF4F9881A6
:101CB000C858D0409F93C957DF4F2881C758D0409C
:101CC0002F9382EC9CE09F938F931F930F930E941E
:101CD000F934C8010E9462010FB6F894DEBF0FBE4E
:101CE000CDBF98CF0F931F93CF93DF9300D0CDB785
:101CF000DEB78B01803241F481E00E94560181E021
:101D00008093EE0D80E209C0813251F480E00E94A0
:101D1000560181E08093EE0D81E20E945C01A2C039
:101D2000863259F40E94A8180E94BE1B898341E0A4
:101D3000BE016F5F7F4F87E20BC0883261F40E9463
:101D40007A1699838A8342E0BE016F5F7F4F89E2F2
:101D50000E94831D87C0823209F042C0443009F0DE
:101D600081C0FB0180810E94B01B6093E30D7093E2
:101D7000E40D8093E50D9093E60DF801618170E02C
:101D800080E090E00E949D2D20E030E04FE753E49A
:101D90000E94022D6093DF0D7093E00D8093E10DA2
:101DA0009093E20DF801628170E0762F66278381BF
:101DB000682B882777FD8095982F0E949D2D609332
:101DC000DB0D7093DC0D8093DD0D9093DE0D82E2D0
:101DD0000E945C0181E08093EF0D8093ED0D42C085
:101DE000833261F54230F1F5FB0180810E94B01B26
:101DF0006093D30D7093D40D8093D50D9093D60D31
:101E0000F801618170E080E090E00E949D2D20E06B
:101E100030E04FE753E40E94022D6093CF0D7093A2
:101E2000D00D8093D10D9093D20D83E20E945C017E
:101E300081E08093EF0D8093EC0D14C0843291F417
:101E4000433081F4FB0180818093CE0D81818093AA
:101E5000CD0D82818093CC0D84E20E945C0181E0F3
:101E60008093EB0D0F900F90DF91CF911F910F9109
:101E700008958091F50D9091F60D892B51F02091E8
:101E8000F50D3091F60D1092F60D1092F50DC90179
:101E9000089580E090E008958091F30D9091F40D05
:101EA000892B51F02091F30D3091F40D1092F40D27
:101EB0001092F30DC901089580E090E0089580919B
:101EC000F10D9091F20D08954091FB0D5091FC0D94
:101ED0002091FD0D3091FE0DBA01C9010895409188
:101EE000F70D5091F80D2091F90D3091FA0DBA01CE
:101EF000C90108952F923F924F925F926F927F9205
:101F00008F929F92AF92BF92CF92DF92EF92FF9209
:101F10000F931F93CF93DF93CDB7DEB72A970FB6FA
:101F2000F894DEBF0FBECDBF0E94351F40E06FEFBB
:101F300080E00E9491190E94D8150E947401A89512
:101F40000E94530180FFD9C10E945901813009F0DC
:101F5000D4C10E94390F4C01A090F10DB090F20D48
:101F60000E94640F6B017C010E946F0F2B013C01EA
:101F700096FCE3CFB0FE59C0B601882777FD809567
:101F8000982F0E949D2D2DEC3CEC4CE45EEB0E94C2
:101F9000BB2E0E946F2D8B01B701882777FD80959E
:101FA000982F0E949D2D2DEC3CEC4CE45EEB0E94A2
:101FB000BB2E0E946F2D7B01C301C2968536910511
:101FC00088F0B301882777FD8095982F0E949D2D7A
:101FD0002DEC3CEC4CEC5DEB0E94BB2E0E946F2D77
:101FE0005B0102C0A12CB12CACEFCA2EACE0DA2E02
:101FF0009501A701B801CE0101960E94331A2981EB
:102000003A814B815C816D817E81C6010E944406CC
:1020100080E2C80ED11C9CEBC9169DE0D90641F7A1
:102020000E946F1F8AE090E065C1662457FC6094AF
:10203000762CB1FE7CC0B701882777FD8095982F5C
:102040000E949D2D2BED3FE049E450E40E94BB2E01
:1020500020E030E044EB54E40E94022D4B015C018F
:10206000B601882777FD8095982F0E949D2D2BED36
:102070003FE049E450EC0E94BB2E20E030E044EB0E
:1020800054E40E94022D6B017C01C301B2010E9445
:102090009D2D2BED3FE049E450E40E94BB2E20E053
:1020A00030E044EB54E40E94022D2B013C010CEF84
:1020B0001CE020E030E040E050E060E070E0CE0165
:1020C00001960E94331A29813A814B815C816D818E
:1020D0007E81C8010E944406C8010E94AE03298384
:1020E0003A834B835C836D837E83B301A201CE016F
:1020F00001960E94271BB501A401CE0101960E9402
:10210000341BB701A601CE0101960E942E1B298126
:102110003A814B815C816D817E81C8010E941305EB
:10212000005E1F4F8DE00C3B180719F679CFC114E4
:10213000D10459F41E141F043CF1E114F10469F5B3
:10214000B12CA12C912C812C30C0B601882777FDB1
:102150008095982F0E949D2D9B01AC01B701882787
:1021600077FD8095982F2F83388749875A870E945B
:102170009D2D2F81388549855A850E94AB2CB62E1E
:10218000A72E982E892E11C06BEDB62E7FE0A72EBC
:10219000E9EC9E2EFFE38F2E08C02BEDB22E3FE020
:1021A000A32E49EC942E5FEB852ECC9CB001CD9CE8
:1021B000700D700D1124EE9CC001EF9C900D900DE0
:1021C0001124680F791F882777FD8095982F0E942A
:1021D0009D2D0E946E2F20E030E04EEF52E40E94D1
:1021E000022D9B01AC0160E070E0CB010E94D82D74
:1021F0009B01AC0160E070E080E89FE30E94F72D56
:10220000D62EC72E382E292EC301B2010E949D2D35
:1022100020E030E04EEF52E40E94022D7B018C0161
:10222000762E6F2C582E412E2AE939E949E95EE3D2
:102230007F2D912F0E94FE2C181684F02AE939E98F
:1022400049E95EEB6E2D7F2D802F912F0E94B02EDD
:10225000181624F4712C612C512C412C2AE939E9EF
:1022600049E95EE3D601F1016B2F7C2D8F2F922D72
:102270000E94FE2C181674F420E030E0A901D6016B
:10228000F1016B2F7C2D8F2F922D0E94FE2C81113E
:102290005CC004C0D12CC12C312C212C20E030E0BA
:1022A000A901D301F2016B2F762D8F2F942D0E945F
:1022B000FE2C81114AC00CEF1CE020E030E040E031
:1022C00050E060E070E0CE0101960E94331A29814F
:1022D0003A814B815C816D817E81C8010E944406F8
:1022E000005E1F4F8DE00C3B180739F70E946F1FEF
:1022F00088E090E00E94CE1B22CE0E94DC150E9456
:10230000740140E060E080E00E94911988EC90E068
:102310000E94CE1B0E94441F2A960FB6F894DEBF7F
:102320000FBECDBFDF91CF911F910F91FF90EF9026
:10233000DF90CF90BF90AF909F908F907F906F90E5
:102340005F904F903F902F9008958CEFE82E8CE097
:10235000F82E00E010E04F925F926F927F928F9282
:102360009F92AF92BF922F923F92CF92DF92809135
:10237000F00D8F93F80195E0EE0FFF1F9A95E1F7AE
:10238000E450F34F8DB79EB780970FB6F8949EBF79
:102390000FBE8DBFADB7BEB7119680E201900D9212
:1023A0008A95E1F70E94C31429833A834B835C83A7
:1023B0006D837E830FB6F894DEBF0FBECDBFC7011D
:1023C0000E9444060F5F1F4F90E2E90EF11C063099
:1023D000110509F61091F00D1F5F1093F00D0E948A
:1023E000CB15212F332727FD309590E082179307D7
:1023F0000CF07CCF1092F00D79CF9F92AF92BF92EC
:10240000CF92DF92EF92FF920F931F93CF93DF93C0
:10241000CDB7DEB727970FB6F894DEBF0FBECDBF9E
:102420000E94351F25E04FEF60E080E00E94BE195A
:102430000CEF1CE0E12CF12C6F2DC8010E94DC0395
:102440002AE08202C0011124AC0144525A4F66278F
:1024500057FD6095762F8F2D8E0D0E94481FF394A7
:1024600083E0F812E9CF005E1F4FE80E92E1E91217
:10247000E2CF0E946F1FF12CE12CA89584E190E03F
:102480000E94CE1B0E94390F8C01009709F4F5C001
:1024900083FF07C00CEFE02E0CE0F02EC12CD12CF6
:1024A00011C10E945901D82E21E08213F3CF40E0E0
:1024B00060E080E00E9491198CE390E00E94CE1BC6
:1024C00000FF0AC0FD2481E009F480E025E04FEF21
:1024D00060E081950E94BE1917FF05C0E39485E076
:1024E0008E1508F4E12C05FF19C0FF2011F063E000
:1024F00001C062E090E2E99E60011124C6018450AF
:10250000934F6C010E94DC0341E0480FFF2011F063
:1025100063E001C062E0C6010E94E50307FF19C045
:10252000FF2011F063E001C062E090E2E99E6001EB
:102530001124C6018450934F6C010E94DC034FEFBD
:10254000480FFF2011F063E001C062E0C6010E9465
:10255000E50304FF19C0FF2011F064E001C061E051
:1025600090E2E99E60011124C6018450934F6C01F2
:102570000E94DC0341E0480FFF2011F064E001C03D
:1025800061E0C6010E94E50306FF19C0FF2011F0BB
:1025900064E001C061E090E2E99E60011124C6019F
:1025A0008450934F6C010E94DC034FEF480FFF20D3
:1025B00011F064E001C061E0C6010E94E50312FF72
:1025C00019C0FF2011F065E001C060E090E2E99ED3
:1025D00060011124C6018450934F6C010E94DC03FA
:1025E00041E0480FFF2011F065E001C060E0C60146
:1025F0000E94E50310FF19C0FF2011F065E001C043
:1026000060E090E2E99E60011124C6018450934F7E
:102610006C010E94DC034FEF480FFF2011F065E0D2
:1026200001C060E0C6010E94E5032091F10D3091E8
:10263000F20DC8018827907135FF81C0009709F01D
:10264000F4C07DC020E030E040E050E060E070E0A9
:10265000CE0101960E94331A29813A814B815C8117
:102660006D817E81C8010E944406005E1F4F9DE07F
:102670000C3B190739F70E946F1FE11002C040E0C0
:102680001CC021E0E21203C040E06FEF17C082E0FF
:10269000E81202C040E004C093E0E91203C04FEF2B
:1026A0006FEF05C024E0E21204C04FEF60E080E06D
:1026B00006C085E0E812E1CE4FEF60E08FEF0E94A8
:1026C0009119DBCE00E010E0C8018C0D9D1D0E9429
:1026D0008635482F602FC7010E94E5030F5F1F4F0B
:1026E0000630110589F7C7010E94CA0690E2E90E7B
:1026F000F11C26E0C20ED11C84E2C816D10411F7E9
:102700000E946F1F40E060E080E00E94911988EC19
:1027100090E00E94CE1B0E94441F27960FB6F894AB
:10272000DEBF0FBECDBFDF91CF911F910F91FF9004
:10273000EF90DF90CF90BF90AF909F900895892B3E
:1027400009F04DC016FF25C01CEFA12E1CE0B12ED4
:1027500000E010E06801912C692DC5010E94DC03A6
:10276000682FC6010E94943593949FEFC91AD90A25
:1027700026E09212F1CF0A5F1F4F80E2A80EB11C33
:102780000432110539F725E040E06FEF80E00E9448
:10279000BE190CEF1CE0F11055CFC12C1EC06D2DE1
:1027A000C8010E94DC032AE08202C0011124AC01AE
:1027B00044525A4F662757FD6095762F8D2D8C0D0C
:1027C0000E94481FD39483E0D812E9CF005E1F4FC8
:1027D000C80E92E1C91609F44ECFD12CE0CFBCEF60
:1027E000AB2EBCE0BB2EC12CD12C00E010E0C80108
:1027F0008C0D9D1D0E948635482F602FC5010E94BB
:10280000E5030F5F1F4F0630110589F796E0C90EEB
:10281000D11C20E2A20EB11C84E2C816D10429F713
:1028200025E040E06FEF8FEFB2CF0CEF1CE0FF2010
:1028300009F123E040E0622FC8012F830E94E503E5
:102840002F812F5F2630B1F7005E1F4F9DE00C3BBC
:10285000190779F711C040E06D2DC8010E94E5030A
:10286000D39423E0D212F7CF005E1F4F8DE00C3BD4
:10287000180711F0D12CEFCF25E040E060E0D3CF76
:10288000A8950E94390F80FF03C00E94FD1105C06A
:102890000E94530180FD0E947A0F84E190E00C9425
:1028A000CE1BCF93DF93EB01803131F588818330EC
:1028B00031F40E94530191E089270E94560181E082
:1028C00090E0088002C0880F991F0A94E2F72091D7
:1028D000F50D3091F60D282B392B3093F60D209302
:1028E000F50D2091F10D3091F20D282B392B3093FD
:1028F000F20D2093F10D44C08131F9F481E090E0B4
:10290000088002C0880F991F0A94E2F72091F30D06
:102910003091F40D282B392B3093F40D2093F30DC7
:102920002091F10D3091F20D8095909582239323A3
:102930009093F20D8093F10D23C0833109F58881C6
:1029400090E08F5791099093FC0D8093FB0D2981A6
:102950008FE790E0AC01421B51095093FE0D40936C
:10296000FD0D2A8130E02F5731093093F80D209367
:10297000F70D2B81821B91099093FA0D8093F90D2D
:10298000DF91CF9108957F928F929F92AF92BF92E5
:10299000CF92DF92EF92FF920F931F93CF93DF932B
:1029A000CDB7DEB768970FB6F894DEBF0FBECDBFC8
:1029B00029960FAD29972D96CCACDDACEEACFFACD3
:1029C0002D9765968CAC9DACAEACBFAC6597CE0137
:1029D00088960E94A503853061F0CE0188960E94FA
:1029E000A503813031F0CE0188960E94A503833083
:1029F00041F4802F90E00B9666E170E00E94E32B9B
:102A0000082F20E030E040E050E060E070E0CE01D0
:102A100043960E94331A20E030E040E050E060E04E
:102A200070E0CE010D960E94331A86E0782E709EDB
:102A300080011124F801ED57F14F2081318142814D
:102A4000538164817581CE010D960E943B1A6D857C
:102A50007E85882777FD8095982F0E949D2DA70160
:102A600096010E94BB2E0E946A2D7E876D876F851E
:102A70007889882777FD8095982F0E949D2DA70142
:102A800096010E94BB2E0E946A2D788B6F876196FB
:102A90004CAD5DAD6EAD7FAD6197CE010D960E94E0
:102AA000271B2D853E854F85588969897A89CE01F6
:102AB00043960E943B1A20E030E040E050E060E0A6
:102AC00070E0CE0107960E94331AF801E150F24FF0
:102AD000208131814281538164817581CE010796C5
:102AE0000E943B1A6F817885882777FD8095982F03
:102AF0000E949D2DA50194015F770E94BB2E0E942C
:102B00006A2D78876F8369857A85882777FD809518
:102B1000982F0E949D2DA50194010E94BB2E0E941A
:102B20006A2D7A876987CE0188960E94A803AB0137
:102B3000BC01CE0107960E94271B2F81388549854D
:102B40005A856B857C85CE0143960E943B1AFE0117
:102B50007396DE01119601900D927A94E1F7298126
:102B60003A814B815C816D817E8180E090E0689646
:102B70000FB6F894DEBF0FBECDBFDF91CF911F918E
:102B80000F91FF90EF90DF90CF90BF90AF909F900C
:102B90008F907F90089586E10895EAE7F0E08081C4
:102BA0008F68808310927B0087E680937C00089575
:102BB00081E08093080F08951092080F0895CF9236
:102BC000DF92EF92FF92CF93C091090FC11105C020
:102BD0008091070F8093090F25C06091070F70E067
:102BE00080E090E00E949D2D2DEC3CEC4CE45EE3F7
:102BF0000E94BB2E6B017C016C2F70E080E090E0A6
:102C00000E949D2D2DEC3CEC4CE45FE30E94BB2E1A
:102C10009B01AC01C701B6010E94382C0E946F2DA8
:102C20006093090F8091080F882381F18091090F2B
:102C300087FF04C040E06FEF80E026C0853620F4B7
:102C400040E060E08FEF20C0E82EF12C9701245681
:102C500031094FEF429FC001439F900D1124ECE1D9
:102C6000F0E0BF010E94E32BC62F20E830E02E19D0
:102C70003F09429FC001439F900D1124BF010E9454
:102C8000E32B862F40E06C2F0E9491191092070FC2
:102C9000CF91FF90EF90DF90CF9008951F920F9209
:102CA0000FB60F9211248F93809179008093070FB4
:102CB0008F910F900FBE0F901F901895089A08954E
:102CC00080910B0F811115C081E080930B0F8091D3
:102CD000680081608093680080916B0082608093BF
:102CE0006B0088EC87BD109A85E88A95F1F70000A3
:102CF0001098089580910E0F90910F0F08951F92D4
:102D00000F920FB60F9211248F939F93789416BC55
:102D100080910C0F90910D0F0A9690930D0F809358
:102D20000C0F9F918F910F900FBE0F901F901895D1
:102D30001F920F920FB60F9211240BB60F922F9382
:102D40003F934F935F936F937F938F939F93AF9333
:102D5000BF93EF93FF937894019B0EC016BC81E064
:102D600085BD14BC80916E00826080936E001092CD
:102D70000D0F10920C0F39C086B520910C0F3091B9
:102D80000D0F4AE0849FC001112468EC70E00E949E
:102D9000CF2BCB01A0E0B0E0820F931FA11DB11D8E
:102DA00090930D0F80930C0F15BC809168008E7F5F
:102DB0008093680080916B008D7F80936B006091A1
:102DC0000C0F70910D0F80E090E00E949B2D2AE97E
:102DD00039E949EB50E40E94022D0E946F2D709357
:102DE0000F0F60930E0F10920B0FFF91EF91BF9199
:102DF000AF919F918F917F916F915F914F913F9193
:102E00002F910F900BBE0F900FBE0F901F90189533
:102E1000BF92CF92DF92EF92FF920F931F93CF93C7
:102E2000DF9300D000D000D0CDB7DEB784E290E0D1
:102E30000E948E357C0186E290E00E948E3521E171
:102E4000C22E2FE0D22EF601F182E08233E1E32E92
:102E50003FE0F32EF701918380830E945A2219826A
:102E600088E78A8301E021E042E050E0BE016F5F25
:102E70007F4F8EE10E94C22281E0898380E28A83B3
:102E800021E042E050E0BE016F5F7F4F8EE10E9483
:102E9000C22282E089831A8221E042E050E0BE0132
:102EA0006F5F7F4F8EE10E94C22243E0B42EB98251
:102EB00021E041E050E0BE016F5F7F4F8EE10E9454
:102EC000C22284E690E00E94CE1B16E0198321E026
:102ED00046E050E0BE016F5F7F4F8EE10E9471229D
:102EE000B98221E041E050E0BE016F5F7F4F8EE18B
:102EF0000E94C22284E690E00E94CE1B198321E04A
:102F000046E050E0BE016F5F7F4F8EE10E9471226C
:102F1000898190E0982F88272A81822BF6012081D1
:102F20003181820F931F9093160F8093150F8D811F
:102F300090E0982F88272E81822BF7012081318104
:102F4000820F931F9093180F8093170F26960FB63A
:102F5000F894DEBF0FBECDBFDF91CF911F910F91CF
:102F6000FF90EF90DF90CF90BF9008952091110FC8
:102F70003091120FFC01318320838091130F9091C7
:102F8000140FFB019183808308959093120F809317
:102F9000110F7093140F6093130F0895EF92FF9227
:102FA0000F931F93CF93DF9300D000D000D0CDB705
:102FB000DEB77C018B0186E0898321E046E050E0AA
:102FC000BE016F5F7F4F8EE10E947122298130E048
:102FD000322F22278A81282BF701318320838D818C
:102FE00090E0982F88272E81822BF801918380838F
:102FF00083E0898301E021E041E050E0BE016F5FA2
:103000007F4F8EE10E94C22226960FB6F894DEBF53
:103010000FBECDBFDF91CF911F910F91FF90EF9029
:103020000895CF92DF92EF92FF920F931F93CF9369
:10303000DF9300D000D0CDB7DEB71C821B821A828E
:103040001982BE016F5F7F4FCE0103960E94CE179B
:103050006B817C818091110F9091120F680F791F05
:1030600009811A818091130F9091140F9B012C50AC
:103070003E4F293E334008F05EC0080F191FC801BB
:103080008C509E4F893E934008F055C0882777FDAD
:103090008095982F0E949D2D2DEC3CEC4CE45EE336
:1030A0000E94BB2E6B017C016091150F7091160F71
:1030B000882777FD8095982F0E949D2D2DEC3CEC64
:1030C0004CE45FE30E94BB2E9B01AC01C701B6013B
:1030D0000E94382C0E946A2D7093160F6093150F72
:1030E000B801882777FD8095982F0E949D2D2DECA3
:1030F0003CEC4CE45EE30E94BB2E6B017C016091D2
:10310000170F7091180F882777FD8095982F0E94D0
:103110009D2D2DEC3CEC4CE45FE30E94BB2E9B010B
:10312000AC01C701B6010E94382C0E946A2D709331
:10313000180F6093170F0F900F900F900F90DF9163
:10314000CF911F910F91FF90EF90DF90CF90089556
:10315000CF93DF9300D000D0CDB7DEB76091150FCD
:103160007091160F882777FD8095982F0E949D2DCE
:103170009B01AC016091170F7091180F882777FDA4
:103180008095982F29833A834B835C830E949D2DE1
:1031900029813A814B815C810E94AB2C2AED3FE072
:1031A00049E450E40E94382C0F900F900F900F903C
:1031B000DF91CF910C947D1B4F925F926F927F9223
:1031C0008F929F92AF92BF92CF92DF92EF92FF9237
:1031D0000F931F93CF93DF93CDB7DEB7EF970FB663
:1031E000F894DEBF0FBECDBF4C016E018BE2C80E5E
:1031F000D11C7401A12CB12C260100E010E0662442
:103200006394712C6C0E7D1E6A0C7B1C602FC701B1
:103210000E94CF03F801EE0FFF1FE60DF71D91830B
:103220008083602FC7010E94D703F601E00FF11FD2
:1032300080830F5F1F4F0330110541F700E010E05E
:10324000C8018A0D9B1D0E948635482F602FC7013B
:103250000E94E5030F5F1F4F0630110589F786E0D6
:10326000A80EB11C80E2E80EF11C83E0C80ED11C50
:1032700084E2A816B10409F6B201CE0101960E94BB
:103280007B1900E21EE420E030E045E1B201CE010E
:1032900001960E947C1E40E060E080E00E9491194F
:1032A00000E010E0C401800F911F0E94CA06005E7A
:1032B0001F4F003C1105B1F70E946F1F84EF91E092
:1032C0000E94CE1B0E94441FEF960FB6F894DEBFFB
:1032D0000FBECDBFDF91CF911F910F91FF90EF9067
:1032E000DF90CF90BF90AF909F908F907F906F9026
:1032F0005F904F900895FC01DB0188E290E095A378
:1033000084A325E052962C93529797A386A327E097
:1033100053962C93539791A780A786E054968C934D
:1033200008950F931F93CF93C62F042F12EB282FCE
:103330001203C0011124AC014E54524B60E070E006
:1033400082E10E94481F2C2F1203B0011124AB010F
:103350004E54524B60E070E083E10E94481F10031E
:10336000A00111244E54524B60E070E084E10E94B1
:10337000481FCF911F910F910C946F1FEF92FF92F6
:103380000F931F93CF93DF931F92CDB7DEB7E82E35
:10339000162F042FF12CF216B9F0A895402F612FAB
:1033A0008E2D29830E94911984E690E00E94CE1B05
:1033B00040E060E080E00E94911984E690E00E9485
:1033C000CE1BF3942981E7CF0F90DF91CF911F910E
:1033D0000F91FF90EF9008951092B000E1EBF0E0B4
:1033E00080818760808381E08093700008951895C4
:1033F00018951F920F920FB60F9211242F938F934F
:103400009F93789490911B0F9F5F90931B0F8091D7
:103410001A0F8F5F80931A0F2091190F2F5F20933F
:10342000190F973028F010921B0F91E09093100F16
:103430008F3338F010921A0F80917A008064809355
:103440007A008091190F8F3728F01092190F81E0C0
:1034500080930A0F9F918F912F910F900FBE0F9025
:103460001F9018950895FC017183608353834283F4
:10347000358324830895CF93DF9300D000D000D00C
:10348000CDB7DEB7FC0129833A834B835C836D8320
:103490007E838081918129813A81820F931F91835C
:1034A0008083828193812B813C81820F931F938340
:1034B0008283848195812D813E81820F931F958324
:1034C000848326960FB6F894DEBF0FBECDBFDF9182
:1034D000CF910895FC0171836083538342833583C8
:1034E000248308952F923F924F925F926F927F9222
:1034F0008F929F92AF92BF92CF92DF92EF92FF9204
:103500000F931F93CF93DF93CDB7DEB72C970FB6F2
:10351000F894DEBF0FBECDBF1C018B0169017A019B
:10352000FC0160817181882777FD8095982F0E942A
:103530009D2D4B015C01C701B6010E94E51C9B015A
:10354000AC01C501B4010E94BB2E6D837E838F83C5
:103550009887F80160817181882777FD8095982F81
:103560000E949D2D4B015C01C701B6010E941D1DEB
:1035700069837A838B839C83F101608171818827C1
:1035800077FD8095982F0E949D2D2B013C01C7014E
:10359000B6010E941D1D9B01AC01C301B2010E9436
:1035A000BB2E69877A878B879C87F8016081718140
:1035B000882777FD8095982F0E949D2D2B013C0137
:1035C000C701B6010E94E51C6B017C0129813A818B
:1035D0004B815C81C501B4010E94BB2E9B01AC01F3
:1035E0006D817E818F8198850E94372C0E946A2D83
:1035F000F10171836083A7019601C301B2010E94AA
:10360000BB2E9B01AC0169857A858B859C850E94C8
:10361000382C0E946A2DF801718360832C960FB6B6
:10362000F894DEBF0FBECDBFDF91CF911F910F91F8
:10363000FF90EF90DF90CF90BF90AF909F908F90D2
:103640007F906F905F904F903F902F900895FC0176
:1036500032969A01AB01BF010C94721A9A01AB0128
:10366000BC0104960C94721AFC0134969A01AB01C9
:10367000BF0102960C94721ACF93DF9300D000D052
:10368000CDB7DEB769837A838B839C83FE01319645
:1036900080E090E0420F511D2191DA01A80FB91F7F
:1036A0002C93019684309105B9F70F900F900F90ED
:1036B0000F90DF91CF910895CF93DF9300D000D08A
:1036C000CDB7DEB7FE01319620E030E0860F911DC8
:1036D000DC01A20FB31F4C9141932F5F3F4F243069
:1036E0003105B1F769817A818B819C810F900F90B0
:1036F0000F900F90DF91CF910895CF92DF92EF92CC
:10370000FF926B017C012BED3FE049E450E40E9405
:10371000B02E18164CF42BED3FE049EC50E4C701F5
:10372000B6010E94372CEDCF2BED3FE049E450EC81
:10373000C701B6010E94FE2C87FF0BC02BED3FE0B6
:1037400049EC50E4C701B6010E94382C6B017C01A2
:10375000EBCFC701B601FF90EF90DF90CF900895B7
:10376000682F70E080E090E00E949D2D24EB39ED01
:1037700049EC5CE30E94BB2E0C947D1B0E947D1BD8
:103780002AE836E542E252E40E94BB2E0E946F2DE9
:10379000862F08950E94372C0C947D1B8F929F9248
:1037A000AF92BF92CF92DF92EF92FF92CF93DF93CF
:1037B0001F92CDB7DEB7BC0180E090E00E949B2D48
:1037C0006B017C018091100F882371F00E94111809
:1037D0002DEC3CEC4CE45EE3C701B6010E94372CB3
:1037E0006B017C011092100F8091070F882381F0EC
:1037F0000E94DF158091080F882351F028EB3EE1ED
:1038000045E05EE3C701B6010E94372C6B017C01E5
:1038100080910A0F882371F00E94601623EC35EF27
:1038200048EA5EE3C701B6010E94372C6B017C01B8
:1038300010920A0F8091F90C882351F0898341E09E
:10384000BE016F5F7F4F81E00E94831D1092F90CD3
:103850008091F80C882351F0898341E0BE016F5FAD
:103860007F4F82E00E94831D1092F80C20E030E42C
:103870004CE955E4C701B6010E94BB2E4B015C0127
:1038800020E030E040E85FE30E94FE2C87FD24C08A
:1038900020E03FEF4FE757E4C501B4010E94B02E8E
:1038A0001816ACF420E030E040E251E4C701B60164
:1038B0000E94BB2E0E946F2D24EF31E0611571052F
:1038C00081F0C9010197F1F761507109F7CFC50186
:1038D000B4010E946F2D02C061E070E0CB0101973E
:1038E000F1F70F90DF91CF91FF90EF90DF90CF90A5
:1038F000BF90AF909F908F900895FB0197FF02C0FB
:103900009C5FFCCF811524E0920714F09450FACF0D
:103910008F3F910509F01CF421E020830895813048
:1039200042E094072CF422E0208320E032E00CC037
:10393000813053E0950724F423E0208392500895CA
:1039400024E0208320E034E0A901481B590BCA0180
:103950000895CF92DF92EF92FF926B017C0120E0FD
:1039600030E040E85FEB0E94FE2C87FD25C020E0A0
:1039700030E040E85FE3C701B6010E94B02E1816A0
:10398000DCF020E030E048EC52E4C701B6010E94D0
:10399000BB2E20E030E048EC52E40E94382C0E941C
:1039A0006F2D84E0689FF0011124E25FF64F608183
:1039B00071818281938104C060E070E080EC9FE7B8
:1039C000FF90EF90DF90CF900895CF93DF931F92F9
:1039D000CDB7DEB7198220E030E040E054E40E9429
:1039E000BB2E2BED3FE049E450E40E94022D0E94E3
:1039F0006A2DDC01CB01BE016F5F7F4F0E947D1CF1
:103A000094E0899FF0011124E65FFA4F6081718193
:103A10008281938129812250223028F420E030E0F5
:103A200040E85FEB04C020E030E040E85FE30E9444
:103A3000BB2E0F90DF91CF910895CF93DF931F920C
:103A4000CDB7DEB7198220E030E040E054E40E94B8
:103A5000BB2E2BED3FE049E450E40E94022D0E9472
:103A60006A2DDC01CB01BE016F5F7F4F0E947D1C80
:103A700094E0899FF0011124EA5FFE4F608171811B
:103A8000828193812981233028F020E030E040E8D2
:103A90005FEB04C020E030E040E85FE30E94BB2E13
:103AA0000F90DF91CF91089577E0E0E860E82E2F46
:103AB00030E035952795E22F669FA00111248417E9
:103AC000950710F4621B01C0620F715081F7669F69
:103AD000900111248217930708F46150862F90E01B
:103AE0000895CF93C82F662351F083E88C0F82305E
:103AF00030F48DE70E94321E80E28C2701C08C2FAB
:103B0000CF910C94321EAF92BF92DF92EF92FF9250
:103B10000F931F93CF93DF931F92CDB7DEB7F82E8D
:103B2000162FE42E8EE779830E94321E61E081E039
:103B30008E0D0E94711D8F2D0E94321ED12EA12E3E
:103B40007981B72E8A2D8D198E1558F4850161E083
:103B5000F50181915F010E94711DF8018081F80ECD
:103B6000F1CF61E08F2D80950F90DF91CF911F9164
:103B70000F91FF90EF90DF90BF90AF900C94711D6C
:103B80008091440F08959091440F992339F08E3716
:103B900009F060C01092440F1092490F9091490FA4
:103BA000992351F08E3711F481E023C08D3721F431
:103BB00081E08093450F08952091450F222321F045
:103BC00020E282271092450F923028F02091460F74
:103BD000280F2093460F913049F030F0923091F445
:103BE0008093470F83E00BC081E009C0811104C0BE
:103BF00083E08093440F08958093480F82E0809380
:103C0000490F0895993230F5692F70E04091480FBF
:103C1000242F30E02E5F3F4F62177307A1F480918D
:103C2000460F8F3F41F441506CE17FE08091470F98
:103C30000E940E0203C082E08093440F1092490F4D
:103C40001092460F08959F5F9093490FFB01E75E26
:103C5000F04F80830895E1ECF0E0808180688083FC
:103C6000789408950C9416221F920F920FB60F921B
:103C700011240BB60F922F933F934F935F936F9343
:103C80007F938F939F93AF93BF93EF93FF93E1EC59
:103C9000F0E080818F77808378948091C6000E94C5
:103CA000C31DE1ECF0E0808180688083FF91EF919B
:103CB000BF91AF919F918F917F916F915F914F9144
:103CC0003F912F910F900BBE0F900FBE0F901F9042
:103CD0001895FC0143815481FB01238134814217F3
:103CE000530738F081E090E02417350720F080E09A
:103CF00008958FEF9FEF08958F929F92BF92CF927A
:103D0000DF92EF92FF920F931F93CF93DF93D42E06
:103D100045E14D1510F445E1D42ED09263104C01CD
:103D2000C4E6D0E1B62E86E690E1FB0141E050E02A
:103D30006E2F6B196D15D0F4D4016D917D914D01ED
:103D400079836883E190DC01EC9268817981DB0101
:103D5000CE90BD01DA0102C0AA0FBB1FEA94E2F7C0
:103D6000CA2ADB01CC9225960596E2CF0C3CBCE03A
:103D70001B072105310538F481E090E090934E0F48
:103D800080934D0F0DC0063646E614072105310518
:103D900050F488E090E090934E0F80934D0F82E0B6
:103DA00080934C0F31C0003383E3180783E028076A
:103DB000310540F480E490E090934E0F80934D0FD6
:103DC00083E0EECF003CACEC1A07ACE02A073105EB
:103DD00040F480E091E090934E0F80934D0F84E08B
:103DE000DFCF80E094E090934E0F80934D0F85E0FD
:103DF00080934C0F0115B3E31B072B07310520F00F
:103E000000E013E323E330E0109280008091810012
:103E100090914C0F892B80938100A4E1B0E0A9011F
:103E200098010E94192C20914D0F30914E0F40E0C7
:103E300050E00E94F72B207F309389002093880068
:103E400086E080936F0078948091820080688093F0
:103E50008200DF91CF911F910F91FF90EF90DF9043
:103E6000CF90BF909F908F900895109285001092F0
:103E7000840086E080936F00E1E8F0E0808190911B
:103E80004C0F892B8083089581E08093CF10089593
:103E9000CF93C82F80916310C817F8F4A4E1B0E065
:103EA0009A01AB010E94192C20914D0F30914E0FB9
:103EB00040E050E00E94F72B207F85E0C89FF00192
:103EC0001124EC59FF4E838194818217930719F0D6
:103ED00081E08093D21034832383CF910895AF92F1
:103EE000BF92CF92DF92EF92FF920F931F93CF93E7
:103EF000DF93CDB7DEB7C956D1090FB6F894DEBF50
:103F00000FBECDBF8091D210882309F4FEC081E09E
:103F10008093D01080E095E060916310861790F454
:103F2000989FF0011124A1E0B0E0AC0FBD1FAE0FCF
:103F3000BF1FEC59FF4E292F01900D922A95E1F7F2
:103F40008F5FEACF70E029E63EE145E050E0CE0128
:103F500001960E9410321092591010925A1010922D
:103F60005B1010925C10B09063102B2D30E070E06D
:103F7000A6E04FEF5FEF6FEF872F90E0281739072C
:103F80007CF0A89FF001A99FF00D1124E15BF04F98
:103F90005183408362836383648365837F5FECCF57
:103FA0004C815D81E0905910F0905A1000915B10A7
:103FB00010915C10FE013396D12CC12C66E0A62E28
:103FC00081E090E0DB1409F491C021813281421735
:103FD000530720F4452B09F0C394A901232B09F4BE
:103FE00082C0DF0112972D913C912232310549F4B4
:103FF000BC01008002C0660F771F0A94E2F7E62A30
:1040000023C02532310549F4BC01008002C0660F8F
:10401000771F0A94E2F7F62A17C02832310549F4CF
:10402000BC01008002C0660F771F0A94E2F7062BDE
:104030000BC02B32310541F4BC01008002C0660F79
:10404000771F0A94E2F7162BAC9CD0011124A15BD8
:10405000B04F11965C934E932232310579F49C0156
:10406000008002C0220F331F0A94E2F720951296B7
:104070003C911297322312963C9335C0253231057C
:1040800079F49C01008002C0220F331F0A94E2F7EA
:10409000209513963C911397322313963C9323C09B
:1040A0002832310579F49C01008002C0220F331FB1
:1040B0000A94E2F7209514963C91149732231496B3
:1040C0003C9311C02B32310571F49C01008002C079
:1040D000220F331F0A94E2F7209515963C9115970D
:1040E000322315963C93D39435966CCFE0925910B9
:1040F000F0925A1000935B1010935C101092D21043
:1041000081E08093D1101092D010C759DF4F0FB6C5
:10411000F894DEBF0FBECDBFDF91CF911F910F91FD
:10412000FF90EF90DF90CF90BF90AF9008950E94E6
:10413000481F0C946F1F9B01AC01A4E1B0E00E94EA
:10414000192C20914D0F30914E0F40E050E00E940D
:10415000F72B207F3093CE102093CD100895189523
:104160001F920F920FB60F9211240BB60F922F933E
:104170003F934F935F938F939F93AF93BF93EF932F
:10418000FF938091D110882319F18091D010811173
:104190001FC096E020916310821778F4989FF00179
:1041A0001124DF01AD52B04FE15BF04F292F019098
:1041B0000D922A95E1F78F5FEDCF86E0E7E5F0E11C
:1041C000ADE5B0E101900D928A95E1F71092D11022
:1041D0008091CD109091CE10009741F0909389007E
:1041E000809388001092CE101092CD108091CF1045
:1041F00030915F10209160105091611040916210D9
:104200008823B9F01092810082B13095382332B9F9
:1042100085B12095282325B988B1952F90959823AD
:1042200098B99BB1842F809589238BB91092CF10B8
:104230001EC0109285001092840083ED9FE0909341
:104240004B0F80934A0F8091D30F9091D40F90938E
:104250008B0080938A0082B1832B82B985B1822B37
:1042600085B988B1852B88B98BB1842B8BB9FF9127
:10427000EF91BF91AF919F918F915F914F913F913E
:104280002F910F900BBE0F900FBE0F901F9018959F
:104290000F920FB68F939F93EF93FF93E0914A0F86
:1042A000F0914B0F329682B19191892382B985B1F9
:1042B0009191892385B988B19191892388B98BB16E
:1042C000919189238BB9F0934B0FE0934A0F819121
:1042D000919190938B0080938A00FF91EF919F9131
:1042E0008F910FBE0F901895CF92DF92EF92FF92B1
:1042F0000F931F93CF936B017C01C42F122F60ED9E
:1043000072E183E190E0A70196010E94F72B215012
:1043100031093093C5002093C4008091C0008C7F88
:104320008093C0001092C200C93049F48091C1004E
:1043300084608093C1008091C200866009C0809132
:10434000C2004C2F50E045505109440F551F842B9B
:104350008093C2008091C20090E1199F90011124C6
:1043600010E00150110993E0000F111F9A95E1F739
:10437000022B082B0093C2008091C10080618093C2
:10438000C1000E942B1E8091C10088608093C100F3
:10439000CF911F910F91FF90EF90DF90CF900C94F1
:1043A000D9210F9301E020E048E00E9474210F9191
:1043B000089578940895CF93DF93C1ECD0E098816D
:1043C0009F7D9883682F83ED90E10E94EF24888180
:1043D00080628883DF91CF910895CF93DF93EC01C2
:1043E0008991882319F00E94DB21FACFDF91CF91C8
:1043F0000895EF92FF921F93CF93DF931F92CDB753
:10440000DEB7182F7C018E2D811B861740F4F70133
:1044100081917F0169830E94DB216981F4CF0F9034
:10442000DF91CF911F91FF90EF9008950C94DB21C5
:104430001F920F920FB60F9211240BB60F922F936B
:104440003F934F935F936F937F938F939F93AF931C
:10445000BF93EF93FF9383ED90E10E94C8248111F5
:1044600007C083ED90E10E94E0248093C60005C060
:104470008091C1008F7D8093C100FF91EF91BF912A
:10448000AF919F918F917F916F915F914F913F91EC
:104490002F910F900BBE0F900FBE0F901F9018958D
:1044A00085ED8093BC008091BC0084FDFCCF109210
:1044B0004A11089510924A1181E080934811109298
:1044C0004711E9EBF0E080818E7F808380818D7FD2
:1044D000808381E18093B80085E48093BC00789468
:1044E00008954132510508F04BC090914A11911145
:1044F000FCCF91E090934A11209348112FEF209325
:10450000D81010922611109225119A0121503109CC
:1045100030932411209323119093491190914911C4
:10452000880F892B8093491180914711813041F484
:1045300010924711809149118093BB0085EC01C016
:1045400085EE8093BC0080914A118130E1F3809127
:104550002511909126118417950720F4409125117B
:1045600050912611A7E2B1E1FB01CA01895D9E4E7F
:10457000A817B90719F02D912193FACF842F089528
:1045800080E008950F9341325105E8F590914A116A
:104590009111FCCF92E090934A11009348119FEF44
:1045A0009093D81010922611109225115093241137
:1045B00040932311FB01A7E2B1E1495D5E4EA417D0
:1045C000B50719F091919D93FACF109249119091EE
:1045D0004911880F892B80934911809147118130AF
:1045E00041F410924711809149118093BB0085ECF2
:1045F00001C085EE8093BC00222339F080914A11DE
:10460000823019F4FBCF81E013C08091D8108F3F26
:1046100071F08091D810803231F08091D8108033C1
:1046200021F483E005C082E003C084E001C080E0A3
:104630000F910895880F8093BA0008956132710533
:10464000A8F420914A11243099F47093FE106093DD
:10465000FD10FC01A1E0B1E16F5F7E4EA617B70728
:1046600019F081918D93FACF80E0089581E008954B
:1046700082E00895909322118093211108959093E0
:10468000FC108093FB1008951F920F920FB60F92AB
:1046900011240BB60F922F933F934F935F936F9319
:1046A0007F938F939F93AF93BF93EF93FF938091EB
:1046B000B900887F803609F4B5C068F5883209F4FE
:1046C0005BC090F4803109F454C038F4882309F4B5
:1046D0002EC1883009F44DC02EC1883109F44CC078
:1046E000803209F468C027C1803409F478C048F4E6
:1046F000803309F460C0883309F01DC18093D8105D
:1047000010C1803509F45AC0883509F471C0883465
:1047100009F011C10EC1883909F4FFC0A8F4883727
:1047200009F480C038F4883609F47CC0803709F475
:1047300079C001C1883809F4F0C0803909F47AC021
:10474000803809F0F8C076C0803B09F4ABC038F47B
:10475000803A09F488C0883A09F4A4C0ECC0803CCF
:1047600009F4DFC0883C09F4DCC0883B09F4B8C018
:10477000E2C0809149111BC0209125113091261172
:1047800080912311909124112817390708F041C016
:1047900080912511909126119C012F5F3F4F3093FE
:1047A000261120932511FC01E95DFE4E8081809346
:1047B000BB0085ECB3C08093D810BBC0809125119D
:1047C000909126119C012F5F3F4F3093261120932B
:1047D00025112091BB00FC01E95DFE4E2083209154
:1047E000251130912611809123119091241191C0AF
:1047F00080912511909126119C012F5F3F4F30939E
:104800002611209325112091BB00FC01E95DFE4E8D
:1048100020838091481181118CC081E080934711E1
:1048200084EA80C083E080934A111092DA101092DB
:10483000D910BFCF8091D9109091DA10809708F0ED
:104840006CC08091D9109091DA109C012F5F3F4F7E
:104850003093DA102093D9102091BB00FC01E5526F
:10486000FF4E2083A6CF8091D9109091DA108097C7
:1048700038F4E091D910F091DA10E552FF4E108231
:104880000E9450226091D9107091DA10E091FB10D3
:10489000F091FC108BED90E109951092DA101092D6
:1048A000D9103FC084E080934A11109200111092F9
:1048B000FF101092FE101092FD10E0912111F09166
:1048C000221109958091FD109091FE10892B41F4E1
:1048D00081E090E09093FE108093FD101092011102
:1048E0008091FF10909100119C012F5F3F4F3093FA
:1048F00000112093FF10FC01EF5FFE4E808180933A
:10490000BB002091FF10309100118091FD1090911B
:10491000FE102817390708F44CCF85E88093BC00B7
:104920000AC085EC8093BC0010924A1104C010921A
:10493000D8100E945022FF91EF91BF91AF919F91AB
:104940008F917F916F915F914F913F912F910F9038
:104950000BBE0F900FBE0F901F9018950F931F93D3
:10496000CF93DF931F92CDB7DEB78C01862F90E0F7
:1049700069830E94A330F8019483838369816083F3
:10498000118212820F90DF91CF911F910F910895A4
:10499000FC012181928181E0291380E00895FC01CE
:1049A0008181228190E00196608170E00E94E32B7A
:1049B00030E041E08217930709F040E0842F08952A
:1049C000FC018281A381B481A80FB11D8C919281D9
:1049D0009F5F92832081921708F012820895FC0154
:1049E0008181A381B481A80FB11D6C9381818F5FF8
:1049F00081839081891708F0118208952F923F9248
:104A00004F925F926F927F928F929F92AF92BF92DE
:104A1000CF92DF92EF92FF920F931F93CF93DF938A
:104A2000CDB7DEB763970FB6F894DEBF0FBECDBF2C
:104A30007C011B016A01FC0117821682838181FFC0
:104A400066C3BE016F5F7F4F4B01F7019381F10198
:104A500093FD859193FF81911F01882309F453C32E
:104A6000853239F493FD859193FF81911F01853241
:104A700039F4B70190E00E94C73456016501E5CFD3
:104A800010E0512C20E02032A0F48B3269F030F499
:104A9000803259F0833269F420612CC08D3239F0B4
:104AA000803339F4216026C02260246023C028604E
:104AB00021C027FD27C030ED380F3A3078F426FFAB
:104AC00006C0FAE01F9F300D1124132F13C06AE0B7
:104AD000569E300D1124532E20620CC08E3221F4CC
:104AE00026FD11C3206406C08C3611F4206802C074
:104AF000883641F4F10193FD859193FF81911F0167
:104B00008111C1CF9BEB980F933018F42061805E28
:104B100006C09BE9980F933008F0AAC12F7E26FFAC
:104B200016E02F73722E853621F4F22FF0647F2E5B
:104B300008C0863621F4622F6068762E02C01111FB
:104B4000115077FE07C01C3348F444244394410EAF
:104B500027E00BC0183030F4212F06C027E04CE3CB
:104B6000442E03C027E017E0412C560174E0A70E45
:104B7000B11CF6016081718182819381042DA401B1
:104B80000E94D9336C01098100FF02C003FF06C0F7
:104B900071FC07C072FC08C0612C08C03DE2632EA6
:104BA00005C02BE2622E02C090E2692E802F8C702D
:104BB00099F1662011F084E001C083E0851510F0C2
:104BC000512C0BC0581A73FC08C0B70180E290E06A
:104BD0000E94C7345A94C9F7F3CF662029F0B70171
:104BE000862D90E00E94C73403FD03C000E411E06D
:104BF00002C00CE311E0F72DF0717F2EF8018491D3
:104C0000882309F476C271108052B70190E00E94A7
:104C1000C7340F5F1F4FF2CF77FE0FC04C0C04FF5D
:104C200004C08A81813309F44A94141474F5F8E0BD
:104C3000F41578F588E0482E2CC076FC2AC0812F28
:104C400090E08C159D059CF06CEFC6166FEFD606B4
:104C500074F0772D7068772E0AC0E2E0F0E0EC0F78
:104C6000FD1FE10FF11D8081803319F411501111E6
:104C7000F4CF77FE0EC044244394410E812F90E080
:104C8000C816D9062CF41C1904C04424439401C04E
:104C900010E077FE07C01C141D043CF496012F5F42
:104CA0003F4F05C025E030E002C021E030E0662043
:104CB00011F02F5F3F4F112331F0412F50E04F5F34
:104CC0005F4F240F351F452D50E02417350714F48E
:104CD000521A01C0512C872D897049F4552039F0A2
:104CE000B70180E290E00E94C7345A94F7CF662063
:104CF00029F0B701862D90E00E94C73473FC09C0EB
:104D0000552039F0B70180E390E00E94C7345A94EF
:104D1000F7CF77FE5FC09C2D8D2DD7FE02C090E0AF
:104D200080E0692E782E40E050E0C6018419910998
:104D30009D878C87960126193709280D391D812FEB
:104D400090E0EE27FF27E81BF90BFF87EE87FFEFC8
:104D50006F167F0669F4B7018EE290E02B8B3A8BD9
:104D6000488B598B0E94C734598948893A892B89C5
:104D7000C614D70454F06C857D85661577052CF430
:104D8000F901E40FF51F818101C080E371E0671A2A
:104D900071084F5F5F4FEE85FF856E167F066CF0E2
:104DA000B70190E02B8B3A8B488B598B0E94C7340C
:104DB0002B893A8948895989CACF6C147D0439F402
:104DC0009A81963318F4953311F404FF81E3B70107
:104DD00090E04BC08A81813309F00F7EB70190E0EB
:104DE0000E94C734111105C074FE18C085E490E01C
:104DF00017C0B7018EE290E00E94C73482E06624BB
:104E00006394680EF401E80FF11D8081B70190E012
:104E10000E94C734115041F3862DF1CF85E690E012
:104E2000B7010E94C734D7FC05C0C114D10439F4BE
:104E300004FF05C0D194C194D1088DE201C08BE27A
:104E4000B70190E00E94C73480E36AE0C616D1043F
:104E50002CF08F5FFAE0CF1AD108F7CFB70190E0BE
:104E60000E94C734B701C601C0960E94C73441C131
:104E7000833631F0833779F0833509F058C021C08B
:104E8000560172E0A70EB11CF6018081898301E012
:104E900010E0640114C05601F2E0AF0EB11CF6013F
:104EA000C080D18026FF03C0612F70E002C06FEF89
:104EB0007FEFC6012B8B0E94BC348C012B892F778E
:104EC00015C05601F2E0AF0EB11CF601C080D180D2
:104ED00026FF03C0612F70E002C06FEF7FEFC601B5
:104EE0002B8B0E94B1348C012B892068722E23FDFC
:104EF0001AC0852D90E008171907A8F4B70180E2C1
:104F000090E00E94C7345A94F4CFF60177FC859163
:104F100077FE81916F01B70190E00E94C734511074
:104F20005A94015011090115110579F7E2C0843630
:104F300011F0893651F5560127FF09C0F4E0AF0E94
:104F4000B11CF60160817181828193810AC0F2E017
:104F5000AF0EB11CF60160817181882777FD8095C5
:104F6000982F022F0F7697FF08C090958095709527
:104F700061957F4F8F4F9F4F00682AE030E0A4017A
:104F80000E942835C82EC8183EC0022F853721F44C
:104F90000F7E2AE030E01DC0097F8F3691F018F4B3
:104FA000883559F0B0C0803719F0883711F0ABC0A0
:104FB000006104FF09C0046007C024FF08C0066048
:104FC00006C028E030E005C020E130E002C020E16A
:104FD00032E0560107FF09C0F4E0AF0EB11CF60144
:104FE000608171818281938108C0F2E0AF0EB11CB3
:104FF000F6016081718180E090E0A4010E94283573
:10500000C82EC8180F7706FF0BC0202F2E7FC116A1
:1050100050F404FF0AC002FD08C0202F2E7E05C0F8
:10502000DC2C202F03C0DC2C01C0D12E24FF0DC0AE
:10503000FE01EC0DF11D8081803311F4297E09C041
:1050400022FF06C0D394D39404C0822F867809F03F
:10505000D39423FD13C020FF06C01C2DD51418F4D3
:10506000150D1D19D52CD51468F4B70180E290E018
:105070002B8B0E94C734D3942B89F5CFD51410F411
:105080005D1801C0512C24FF12C0B70180E390E0ED
:105090002B8B0E94C7342B8922FF17C021FF03C02E
:1050A00088E590E002C088E790E0B7010CC0822F4D
:1050B000867859F021FD02C080E201C08BE227FD15
:1050C0008DE2B70190E00E94C734C11638F4B701F1
:1050D00080E390E00E94C7341150F7CFCA94F401E6
:1050E000EC0DF11D8081B70190E00E94C734C11022
:1050F000F5CF552009F4C2CCB70180E290E00E94C0
:10510000C7345A94F6CFF7018681978102C08FEF9A
:105110009FEF63960FB6F894DEBF0FBECDBFDF9151
:10512000CF911F910F91FF90EF90DF90CF90BF90A4
:10513000AF909F908F907F906F905F904F903F9037
:105140002F9008952FE088E190E00FB6F894A8958D
:10515000809360000FBE209360008CEF9CE00E9463
:10516000DC1860E076E980E090E00E94D1210E94A6
:10517000CD150E9408170E945E160E94EC19A89592
:105180008091FB0C813019F40E9440140DC0809175
:10519000FB0C823019F40E94090A06C08091FB0CB6
:1051A000833011F40E94BA078AE090E00E94CE1B7F
:1051B000E6CF8F929F92AF92BF92CF92DF92EF9203
:1051C000FF920F931F93CF93DF9300D000D000D0B6
:1051D000CDB7DEB720E030E048E650E064EC7FEF8A
:1051E000CE0101960E94331A00D000D000D0ADB796
:1051F000BEB7119686E0FE01319601900D928A9518
:10520000E1F780E4982E9F9286E08F939AE0B92E82
:10521000BF9222E9F22EFF9234E0A32E42E2C42E86
:10522000D12C55E0E52E02E210E026E042E250E00B
:1052300060E08CEF9CE00E94580320E030E040E00A
:1052400050E068E87FEFCE0101960E94331A00D04B
:1052500000D000D0ADB7BEB7119686E0FE01319602
:1052600001900D928A95E1F79F9289E48F938FE0E8
:105270008F938BED8F93AA24A39465E2C62ED12C35
:10528000E12C05E210E023E042E250E061E08CE135
:105290009DE00E94580320E030E048E95FEF64ECB5
:1052A0007FEFCE0101960E94331A00D000D000D0CB
:1052B000ADB7BEB7119686E0FE01319601900D9212
:1052C0008A95E1F79F9276E8872E8F92BF92FF92A0
:1052D000E4E0AE2EF3E0EF2E22E045E250E062E0A3
:1052E0008CE39DE00E94580320E030E048E95FEF46
:1052F0006CE370E0CE0101960E94331A00D000D01A
:1053000000D0ADB7BEB7119686E0FE013196019090
:105310000D928A95E1F79F9287EA8F938DE88F939C
:1053200086E38F93A2E0AA2EBBE2CB2ED12C0BE218
:1053300010E024E04BE250E063E08CE59DE00E9449
:1053400058030FB6F894DEBF0FBECDBF20E030E0AB
:1053500040E050E068E770E0CE0101960E94331A09
:1053600000D000D000D0ADB7BEB7119686E0FE01E8
:10537000319601900D928A95E1F71F921F921F922C
:105380001F9285E0A82E96E0E92E27E04BE250E040
:1053900064E08CE79DE00E94580320E030E048E69E
:1053A00050E06CE370E0CE0101960E94331A00D009
:1053B00000D000D0ADB7BEB7119686E0FE013196A1
:1053C00001900D928A95E1F78FE38F938F92BF92B0
:1053D000FF9222E0A22E38E2C32ED12C43E0E42E2D
:1053E00008E210E024E048E250E065E08CE99DE04E
:1053F0000E9458030FB6F894DEBF0FBECDBF2696AD
:105400000FB6F894DEBF0FBECDBFDF91CF911F91D5
:105410000F91FF90EF90DF90CF90BF90AF909F9053
:105420008F90089520E030E040E050E060E070E0D0
:1054300083E89EE00E94331A20E030E040E050E034
:105440006BEF7FEF89E89EE00E94331A20E030E0A6
:1054500040E050E066EF7FEF8FE89EE00E94331A55
:1054600020E030E040E050E061EF7FEF85E99EE032
:105470000E94331A20E030E040E050E06CEE7FEF15
:105480008BE99EE00E94331A20E030E040E050E0DB
:1054900067EE7FEF81EA9EE00E94331A20E030E061
:1054A00040E050E062EE7FEF87EA9EE00E94331A10
:1054B0002AE030E040E050E067EE7FEF8DEA9EE0CA
:1054C0000E94331A24E130E040E050E061EF7FEFCA
:1054D00083EB9EE00E94331A2EE130E040E050E082
:1054E0006BEF7FEF89EB9EE00E94331A2EE130E0F4
:1054F00040E050E065E070E08FEB9EE00E94331AE0
:105500002EE130E040E050E06AE070E085EC9EE0A3
:105510000E94331A2EE130E040E050E06FE070E08E
:105520008BEC9EE00E94331A2EE130E040E050E028
:1055300064E170E081ED9EE00E94331A24E130E0E6
:1055400040E050E068E170E087ED9EE00E94331A91
:105550002AE030E040E050E069E170E08DED9EE04F
:105560000E94331A25E030E040E050E069E170E04D
:1055700083EE9EE00E94331A20E030E040E050E0ED
:1055800069E170E089EE9EE00E94331A20E030E08D
:1055900040E050E064E170E08FEE9EE00E94331A3C
:1055A00020E030E040E050E06FE070E085EF9EE00A
:1055B0000E94331A20E030E040E050E06AE070E002
:1055C0008BEF9EE00E94331A20E030E040E050E094
:1055D00065E070E081E09FE00E94331A20E030E057
:1055E00040E050E060E070E08FEF9DE00E94331AF1
:1055F00020E030E044E050E060E070E085E09EE0D4
:105600000E94331A20E030E048E050E06FEF7FEF77
:105610008BE09EE00E94331A20E030E04CE050E046
:105620006FEF7FEF81E19EE00E94331A20E030E0CF
:1056300040E150E06EEF7FEF87E19EE00E94331A79
:1056400020E030E044E150E06EEF7FEF8DE19EE03E
:105650000E94331A20E030E048E150E06DEF7FEF28
:1056600083E29EE00E94331A20E030E048E150E0FF
:105670006EEF7FEF89E29EE00E94331A20E030E077
:1056800040E150E06FEF7FEF8FE29EE00E94331A1F
:1056900020E030E048E050E06FEF7FEF85E39EE0F0
:1056A0000E94331A20E030E040E050E060E070E01B
:1056B0008BE39EE00E94331A20E030E048EF5FEF7A
:1056C00060E070E081E49EE00E94331A20E030E068
:1056D00042EF5FEF60E070E087E49EE00E94331AE3
:1056E00020E030E04EEE5FEF6FEF7FEF8DE49EE065
:1056F0000E94331A20E030E04AEE5FEF6FEF7FEF59
:1057000083E59EE00E94331A20E030E048EE5FEF30
:105710006EEF7FEF89E59EE00E94331A20E030E0D3
:1057200048EE5FEF6EEF7FEF8FE59EE00E94331A49
:1057300020E030E04CEE5FEF6EEF7FEF85E69EE01D
:105740000E94331A20E030E040EF5FEF6EEF7FEF12
:105750008BE69EE00E94331A20E030E044EF5FEFDA
:105760006FEF7FEF81E79EE00E94331A20E030E088
:1057700048EF5FEF6FEF7FEF87E79EE00E94331AFD
:1057800020E030E04CEF5FEF60E070E08DE79EE0FE
:105790000C94331A6FEF83ED90E10C94AE24AA1BA6
:1057A000BB1B51E107C0AA1FBB1FA617B70710F00C
:1057B000A61BB70B881F991F5A95A9F7809590953E
:1057C000BC01CD01089597FB072E16F4009407D075
:1057D00077FD09D00E94CF2B07FC05D03EF49095B1
:1057E00081959F4F0895709561957F4F0895A1E22F
:1057F0001A2EAA1BBB1BFD010DC0AA1FBB1FEE1F4B
:10580000FF1FA217B307E407F50720F0A21BB30B95
:10581000E40BF50B661F771F881F991F1A9469F711
:1058200060957095809590959B01AC01BD01CF016D
:1058300008950E94282CA59F900DB49F900DA49FC1
:10584000800D911D112408950790F691E02D099483
:10585000A29FB001B39FC001A39F700D811D1124B1
:10586000911DB29F700D811D1124911D08955058F6
:10587000BB27AA270ED03AC22BD230F030D220F06C
:1058800031F49F3F11F41EF4FBC10EF4E095E7FBE9
:10589000F1C1E92F3CD280F3BA176207730784077E
:1058A000950718F071F49EF554C20EF4E0950B2E96
:1058B000BA2FA02D0B01B90190010C01CA01A00162
:1058C0001124FF27591B99F0593F50F4503E68F1BD
:1058D0001A16F040A22F232F342F4427585FF3CFFE
:1058E000469537952795A795F0405395C9F77EF4CF
:1058F0001F16BA0B620B730B840BBAF09150A1F018
:10590000FF0FBB1F661F771F881FC2F70EC0BA0F9D
:10591000621F731F841F48F4879577956795B79525
:10592000F7959E3F08F0B3CF9395880F08F099271D
:10593000EE0F979587950895CBD158F080E891E0C8
:1059400009F49EEFCCD128F040E851E059F45EEF25
:1059500009C096C1FEC1E92FE078D9D168F3092EBC
:10596000052AC1F3261737074807590738F00E2EC6
:1059700007F8E02569F0E025E0640AC0EF6307F866
:10598000009407FADB01B9019D01DC01CA01AD01F8
:10599000EF9347D0ABD10AD05F91552331F02BED77
:1059A0003FE049E450FD49EC63CF0895DF93DD27E4
:1059B000B92FBF7740E85FE31616170648075B0765
:1059C00010F4D92FD1D19F938F937F936F93C4D22B
:1059D000ECE8F0E058D18AD12F913F914F915F913F
:1059E000D6D1DD2349F09058A2EA2AED3FE049ECF8
:1059F0005FE3D0785D274DDFDF9178C117D108F4E0
:105A000081E008950CD072C16AD140F061D130F0CC
:105A100021F45F3F19F02EC151119CC131C177D1E2
:105A200098F39923C9F35523B1F3951B550BBB2765
:105A3000AA2762177307840738F09F5F5F4F220F12
:105A4000331F441FAA1FA9F333D00E2E3AF0E0E80B
:105A500030D091505040E695001CCAF729D0FE2F57
:105A600027D0660F771F881FBB1F261737074807E9
:105A7000AB07B0E809F0BB0B802DBF01FF2793589F
:105A80005F4F2AF09E3F510568F0F4C063C15F3F4D
:105A9000ECF3983EDCF3869577956795B795F79587
:105AA0009F5FC9F7880F911D9695879597F908957F
:105AB000E1E0660F771F881FBB1F6217730784071B
:105AC000BA0720F0621B730B840BBA0BEE1F88F72A
:105AD000E095089504D06894B1113CC108951FD198
